{
  "contractName": "Verifier",
  "abi": [
    {
      "anonymous": false,
      "inputs": [
        {
          "indexed": false,
          "internalType": "uint256",
          "name": "id",
          "type": "uint256"
        },
        {
          "indexed": false,
          "internalType": "string",
          "name": "content",
          "type": "string"
        }
      ],
      "name": "TaskCreated",
      "type": "event"
    },
    {
      "constant": true,
      "inputs": [],
      "name": "blockCount",
      "outputs": [
        {
          "internalType": "uint256",
          "name": "",
          "type": "uint256"
        }
      ],
      "payable": false,
      "stateMutability": "view",
      "type": "function"
    },
    {
      "constant": true,
      "inputs": [
        {
          "internalType": "uint256",
          "name": "",
          "type": "uint256"
        }
      ],
      "name": "tasks",
      "outputs": [
        {
          "internalType": "uint256",
          "name": "id",
          "type": "uint256"
        },
        {
          "internalType": "string",
          "name": "content",
          "type": "string"
        }
      ],
      "payable": false,
      "stateMutability": "view",
      "type": "function"
    },
    {
      "constant": false,
      "inputs": [
        {
          "internalType": "string",
          "name": "_content",
          "type": "string"
        }
      ],
      "name": "createTask",
      "outputs": [],
      "payable": false,
      "stateMutability": "nonpayable",
      "type": "function"
    }
  ],
  "bytecode": "0x60806040526000805534801561001457600080fd5b50610410806100246000396000f3fe608060405234801561001057600080fd5b50600436106100415760003560e01c806307225b4d14610046578063111002aa146100605780638d97767214610108575b600080fd5b61004e6101a4565b60408051918252519081900360200190f35b6101066004803603602081101561007657600080fd5b81019060208101813564010000000081111561009157600080fd5b8201836020820111156100a357600080fd5b803590602001918460018302840111640100000000831117156100c557600080fd5b91908080601f0160208091040260200160405190810160405280939291908181526020018383808284376000920191909152509295506101aa945050505050565b005b6101256004803603602081101561011e57600080fd5b503561029a565b6040518083815260200180602001828103825283818151815260200191508051906020019080838360005b83811015610168578181015183820152602001610150565b50505050905090810190601f1680156101955780820380516001836020036101000a031916815260200191505b50935050505060405180910390f35b60005481565b600080546001908101808355604080518082018252828152602080820187815293865284815291909420845181559151805192936101f093908501929190910190610340565b509050507fa5ed9e6226c584326505694539c95cb0e3238ae09bcda5a65c00bbfdab1c6662600054826040518083815260200180602001828103825283818151815260200191508051906020019080838360005b8381101561025c578181015183820152602001610244565b50505050905090810190601f1680156102895780820380516001836020036101000a031916815260200191505b50935050505060405180910390a150565b600160208181526000928352604092839020805481840180548651600296821615610100026000190190911695909504601f810185900485028601850190965285855290949193929091908301828280156103365780601f1061030b57610100808354040283529160200191610336565b820191906000526020600020905b81548152906001019060200180831161031957829003601f168201915b5050505050905082565b828054600181600116156101000203166002900490600052602060002090601f016020900481019282601f1061038157805160ff19168380011785556103ae565b828001600101855582156103ae579182015b828111156103ae578251825591602001919060010190610393565b506103ba9291506103be565b5090565b6103d891905b808211156103ba57600081556001016103c4565b9056fea265627a7a72315820381f7d9613cdf7836feb911e75502d20482e7473ed5f8d45d613b305fc9ec6d064736f6c63430005100032",
  "source": "pragma solidity >=0.5.0;\n\ncontract Verifier{\n    uint public blockCount = 0;\n\n    struct HashMake {\n        uint id;\n        string content;\n    }\n\n    mapping(uint => HashMake) public tasks;\n    event TaskCreated(\n        uint id,\n        string content\n    );\n    function createTask(string memory _content) public {\n        blockCount ++;\n        tasks[blockCount] = HashMake(blockCount,_content);\n        emit TaskCreated(blockCount, _content);\n    }\n}",
  "sourcePath": "C:\\Users\\Lenovo\\Verf\\client\\contracts\\Verfier.sol",
  "compiler": {
    "name": "solc",
    "version": "0.5.16+commit.9c3226ce.Emscripten.clang"
  },
  "schemaVersion": "3.4.10",
  "updatedAt": "2022-10-14T06:27:55.142Z",
  "devdoc": {
    "methods": {}
  },
  "userdoc": {
    "methods": {}
  }
}